:100000000C9446000C9465000C9465000C946500FB
:100010000C9465000C9465000C9465000C946500CC
:100020000C9465000C9465000C9465000C946500BC
:100030000C9465000C9465000C9465000C946500AC
:100040000C9465000C9465000C9410020C946500EF
:100050000C94CF010C94B4010C9465000C946500D1
:100060000C9465000C9465000C9465000C9465007C
:100070000C9465000C9465000C9465000C9465006C
:100080000C9465000C9465000C94650011241FBE4F
:10009000CFEFD0E1DEBFCDBF11E0A0E0B1E0EAE9F3
:1000A000F5E000E00BBF02C007900D92A031B10750
:1000B000D9F711E0A0E1B1E001C01D92A631B1076E
:1000C000E1F70E9439020C94CB020C940000FC0171
:1000D00081E044815581268137814217530709F019
:1000E00080E00895FC018681978101966281738189
:1000F0000E94AE0241E0248135818217930709F006
:1001000040E0842F0895FC0182819381681779076C
:1001100010F480E008958FEF0895FC0182819381AF
:100120006817790710F480E008958FEF0895FC01B7
:1001300084819581268137818217930711F48FEF8F
:10014000089522813381232BD1F3019695838483F3
:1001500080E008950F931F93CF93DF93EC018B0101
:100160000E947200811115C08E819F8101966A8163
:100170007B810E94AE029F838E8328813981280F64
:10018000391F488550E0B801C9010E94C20280E0D1
:1001900001C08FEFDF91CF911F910F9108958031B2
:1001A00030F4E82FF0E0E050FF4F8081089580E0C8
:1001B0000895CF93DF93FB01C82FC295CF70D0E095
:1001C000C050DF4F988190838F70A82FB0E0A0506F
:1001D000BF4F8C9181831282DF91CF910895FB01F3
:1001E00020E32083A92FAF70B0E0A050BF4F2C9127
:1001F0002183DC0194E0B695A7959A95E1F7AF705D
:10020000B0E0A050BF4F9C9192838F70A82FB0E0B8
:10021000A050BF4F8C9183831482089508959C0150
:1002200097FF02C02D5F3F4F359527953595279550
:10023000213E31053CF02E3082E038072CF02DE0D5
:1002400032E002C021EE30E03BBD2ABD089501C07E
:1002500000005E9BFDCF8CB90895CF93C82F892FE6
:100260000E9427018C2FCF910C942701CF93DF930D
:100270001F92CDB7DEB78983809110019091110153
:10028000FC0144815581268137814217530721F4AF
:1002900009C089818CB909C0BE016F5F7F4F0E9480
:1002A000AA0003C05E9BF8CFF4CF0F90DF91CF91EF
:1002B0000895EF92FF921F93CF93DF931F92CDB7D4
:1002C000DEB7182FE82EF92E07C0F70181917F01C4
:1002D00069830E94360169818E2D811B8617A8F3E0
:1002E0000F90DF91CF911F91FF90EF900895CF93E2
:1002F000DF931F92CDB7DEB78983BE016F5F7F4F5B
:1003000080911201909113010E94AA000F90DF9139
:10031000CF9108951F93CF93DF93EC0110E0FE017E
:10032000E10FF11D80811F5F882319F00E943601C3
:10033000F6CFDF91CF911F910895F89480E487B9AB
:1003400087E886B989E189B91BB886E08093950072
:1003500088ED8AB982E48FBD8BE18EBD81EE90E09D
:100360009BBD8ABD789408951F920F920FB60F928D
:1003700011242F933F938F939F9335B124B1932FE3
:1003800080E0822B90931501809314019F918F91AF
:100390003F912F910F900FBE0F901F9018951F92B5
:1003A0000F920FB60F9211240BB60F922F933F931B
:1003B0004F935F936F937F938F939F93AF93BF936D
:1003C000EF93FF93CF93DF931F92CDB7DEB780916A
:1003D000100190911101FC014481558126813781E2
:1003E0004217530739F0BE016F5F7F4F0E9497009D
:1003F00089818CB90F90DF91CF91FF91EF91BF91DF
:10040000AF919F918F917F916F915F914F913F91AC
:100410002F910F900BBE0F900FBE0F901F9018954D
:100420001F920F920FB60F9211240BB60F922F93BB
:100430003F934F935F936F937F938F939F93AF936C
:10044000BF93EF93FF938CB10E947701FF91EF91DF
:10045000BF91AF919F918F917F916F915F914F91DC
:100460003F912F910F900BBE0F900FBE0F901F90DA
:100470001895CF93DF93CDB7DEB7C256D1090FB62B
:10048000F894DEBF0FBECDBF0E949D01DE01A65ACB
:10049000BF4FCE01819611969C938E93FE01EF5A29
:1004A000FF4FCE0101969183808315961C921E9278
:1004B00014971582148217961C921E921697178213
:1004C000168281E018968C931897808780E490E0DC
:1004D00013969C938E93129793838283B09311010A
:1004E000A0931001F0931301E0931201F89461E4DA
:1004F000E62EF12CEC0EFD1E8FEFE81AF80A7AE0DA
:10050000D72E209114013091150131952195310993
:1005100037FF02C02D5F3F4F3595279535952795BD
:10052000020F131FC8010E940F01809114019091C6
:100530001501B7010E94EF002796DFAE2797289696
:100540001FAE2897CE018F5B9F4F0E948A0187E8DC
:1005500093E10197F1F700C00000D3CFAA1BBB1BAA
:1005600051E107C0AA1FBB1FA617B70710F0A61BB3
:10057000B70B881F991F5A95A9F780959095BC01D4
:10058000CD010895FB01DC0102C001900D924150A4
:0A0590005040D8F70895F894FFCF0B
:10059A0030313233343536373839414243444546AF
:00000001FF
